{
  "contractName": "NonFungibleToken",
  "abi": [
    {
      "constant": true,
      "inputs": [
        {
          "name": "_tokenId",
          "type": "uint256"
        }
      ],
      "name": "getApproved",
      "outputs": [
        {
          "name": "_approved",
          "type": "address"
        }
      ],
      "payable": false,
      "stateMutability": "view",
      "type": "function"
    },
    {
      "constant": false,
      "inputs": [
        {
          "name": "_to",
          "type": "address"
        },
        {
          "name": "_tokenId",
          "type": "uint256"
        }
      ],
      "name": "approve",
      "outputs": [],
      "payable": false,
      "stateMutability": "nonpayable",
      "type": "function"
    },
    {
      "constant": true,
      "inputs": [],
      "name": "implementsERC721",
      "outputs": [
        {
          "name": "_implementsERC721",
          "type": "bool"
        }
      ],
      "payable": false,
      "stateMutability": "view",
      "type": "function"
    },
    {
      "constant": true,
      "inputs": [],
      "name": "totalSupply",
      "outputs": [
        {
          "name": "_totalSupply",
          "type": "uint256"
        }
      ],
      "payable": false,
      "stateMutability": "view",
      "type": "function"
    },
    {
      "constant": false,
      "inputs": [
        {
          "name": "_from",
          "type": "address"
        },
        {
          "name": "_to",
          "type": "address"
        },
        {
          "name": "_tokenId",
          "type": "uint256"
        }
      ],
      "name": "transferFrom",
      "outputs": [],
      "payable": false,
      "stateMutability": "nonpayable",
      "type": "function"
    },
    {
      "constant": true,
      "inputs": [
        {
          "name": "_owner",
          "type": "address"
        },
        {
          "name": "_index",
          "type": "uint256"
        }
      ],
      "name": "tokenOfOwnerByIndex",
      "outputs": [
        {
          "name": "_tokenId",
          "type": "uint256"
        }
      ],
      "payable": false,
      "stateMutability": "view",
      "type": "function"
    },
    {
      "constant": true,
      "inputs": [
        {
          "name": "_tokenId",
          "type": "uint256"
        }
      ],
      "name": "ownerOf",
      "outputs": [
        {
          "name": "_owner",
          "type": "address"
        }
      ],
      "payable": false,
      "stateMutability": "view",
      "type": "function"
    },
    {
      "constant": true,
      "inputs": [
        {
          "name": "",
          "type": "uint256"
        }
      ],
      "name": "tokenIdToOwnerArrayIndex",
      "outputs": [
        {
          "name": "",
          "type": "uint256"
        }
      ],
      "payable": false,
      "stateMutability": "view",
      "type": "function"
    },
    {
      "constant": true,
      "inputs": [
        {
          "name": "",
          "type": "uint256"
        }
      ],
      "name": "tokenIdToOwner",
      "outputs": [
        {
          "name": "",
          "type": "address"
        }
      ],
      "payable": false,
      "stateMutability": "view",
      "type": "function"
    },
    {
      "constant": true,
      "inputs": [
        {
          "name": "_owner",
          "type": "address"
        }
      ],
      "name": "balanceOf",
      "outputs": [
        {
          "name": "_balance",
          "type": "uint256"
        }
      ],
      "payable": false,
      "stateMutability": "view",
      "type": "function"
    },
    {
      "constant": true,
      "inputs": [
        {
          "name": "",
          "type": "address"
        },
        {
          "name": "",
          "type": "uint256"
        }
      ],
      "name": "ownerToTokensOwned",
      "outputs": [
        {
          "name": "",
          "type": "uint256"
        }
      ],
      "payable": false,
      "stateMutability": "view",
      "type": "function"
    },
    {
      "constant": false,
      "inputs": [
        {
          "name": "_to",
          "type": "address"
        },
        {
          "name": "_tokenId",
          "type": "uint256"
        }
      ],
      "name": "transfer",
      "outputs": [],
      "payable": false,
      "stateMutability": "nonpayable",
      "type": "function"
    },
    {
      "constant": true,
      "inputs": [],
      "name": "numTokensTotal",
      "outputs": [
        {
          "name": "",
          "type": "uint256"
        }
      ],
      "payable": false,
      "stateMutability": "view",
      "type": "function"
    },
    {
      "constant": true,
      "inputs": [
        {
          "name": "",
          "type": "uint256"
        }
      ],
      "name": "tokenIdToApprovedAddress",
      "outputs": [
        {
          "name": "",
          "type": "address"
        }
      ],
      "payable": false,
      "stateMutability": "view",
      "type": "function"
    },
    {
      "constant": true,
      "inputs": [
        {
          "name": "",
          "type": "uint256"
        }
      ],
      "name": "tokenIdToMetadata",
      "outputs": [
        {
          "name": "",
          "type": "string"
        }
      ],
      "payable": false,
      "stateMutability": "view",
      "type": "function"
    },
    {
      "anonymous": false,
      "inputs": [
        {
          "indexed": true,
          "name": "_from",
          "type": "address"
        },
        {
          "indexed": true,
          "name": "_to",
          "type": "address"
        },
        {
          "indexed": false,
          "name": "_tokenId",
          "type": "uint256"
        }
      ],
      "name": "Transfer",
      "type": "event"
    },
    {
      "anonymous": false,
      "inputs": [
        {
          "indexed": true,
          "name": "_owner",
          "type": "address"
        },
        {
          "indexed": true,
          "name": "_approved",
          "type": "address"
        },
        {
          "indexed": false,
          "name": "_tokenId",
          "type": "uint256"
        }
      ],
      "name": "Approval",
      "type": "event"
    }
  ],
  "bytecode": "0x6060604052341561000f57600080fd5b6112158061001e6000396000f3006060604052600436106100db576000357c0100000000000000000000000000000000000000000000000000000000900463ffffffff168063081812fc146100e0578063095ea7b3146101435780631051db341461018557806318160ddd146101b257806323b872dd146101db5780632f745c591461023c5780636352211e14610292578063647b6065146102f55780636e9e48ef1461032c57806370a082311461038f578063a006b016146103dc578063a9059cbb14610432578063af129dc214610474578063bea58d511461049d578063bf64db1d14610500575b600080fd5b34156100eb57600080fd5b610101600480803590602001909190505061059c565b604051808273ffffffffffffffffffffffffffffffffffffffff1673ffffffffffffffffffffffffffffffffffffffff16815260200191505060405180910390f35b341561014e57600080fd5b610183600480803573ffffffffffffffffffffffffffffffffffffffff169060200190919080359060200190919050506105d9565b005b341561019057600080fd5b610198610824565b604051808215151515815260200191505060405180910390f35b34156101bd57600080fd5b6101c561082d565b6040518082815260200191505060405180910390f35b34156101e657600080fd5b61023a600480803573ffffffffffffffffffffffffffffffffffffffff1690602001909190803573ffffffffffffffffffffffffffffffffffffffff16906020019091908035906020019091905050610836565b005b341561024757600080fd5b61027c600480803573ffffffffffffffffffffffffffffffffffffffff16906020019091908035906020019091905050610991565b6040518082815260200191505060405180910390f35b341561029d57600080fd5b6102b360048080359060200190919050506109f3565b604051808273ffffffffffffffffffffffffffffffffffffffff1673ffffffffffffffffffffffffffffffffffffffff16815260200191505060405180910390f35b341561030057600080fd5b6103166004808035906020019091905050610a30565b6040518082815260200191505060405180910390f35b341561033757600080fd5b61034d6004808035906020019091905050610a48565b604051808273ffffffffffffffffffffffffffffffffffffffff1673ffffffffffffffffffffffffffffffffffffffff16815260200191505060405180910390f35b341561039a57600080fd5b6103c6600480803573ffffffffffffffffffffffffffffffffffffffff16906020019091905050610a7b565b6040518082815260200191505060405180910390f35b34156103e757600080fd5b61041c600480803573ffffffffffffffffffffffffffffffffffffffff16906020019091908035906020019091905050610ac7565b6040518082815260200191505060405180910390f35b341561043d57600080fd5b610472600480803573ffffffffffffffffffffffffffffffffffffffff16906020019091908035906020019091905050610af8565b005b341561047f57600080fd5b610487610c21565b6040518082815260200191505060405180910390f35b34156104a857600080fd5b6104be6004808035906020019091905050610c27565b604051808273ffffffffffffffffffffffffffffffffffffffff1673ffffffffffffffffffffffffffffffffffffffff16815260200191505060405180910390f35b341561050b57600080fd5b6105216004808035906020019091905050610c5a565b6040518080602001828103825283818151815260200191508051906020019080838360005b83811015610561578082015181840152602081019050610546565b50505050905090810190601f16801561058e5780820380516001836020036101000a031916815260200191505b509250505060405180910390f35b60006002600083815260200190815260200160002060009054906101000a900473ffffffffffffffffffffffffffffffffffffffff169050919050565b80600073ffffffffffffffffffffffffffffffffffffffff166001600083815260200190815260200160002060009054906101000a900473ffffffffffffffffffffffffffffffffffffffff1673ffffffffffffffffffffffffffffffffffffffff161415151561064957600080fd5b610652826109f3565b73ffffffffffffffffffffffffffffffffffffffff163373ffffffffffffffffffffffffffffffffffffffff1614151561068b57600080fd5b8273ffffffffffffffffffffffffffffffffffffffff163373ffffffffffffffffffffffffffffffffffffffff16141515156106c657600080fd5b600073ffffffffffffffffffffffffffffffffffffffff166002600084815260200190815260200160002060009054906101000a900473ffffffffffffffffffffffffffffffffffffffff1673ffffffffffffffffffffffffffffffffffffffff161415806107625750600073ffffffffffffffffffffffffffffffffffffffff168373ffffffffffffffffffffffffffffffffffffffff1614155b1561081f57826002600084815260200190815260200160002060006101000a81548173ffffffffffffffffffffffffffffffffffffffff021916908373ffffffffffffffffffffffffffffffffffffffff1602179055508273ffffffffffffffffffffffffffffffffffffffff163373ffffffffffffffffffffffffffffffffffffffff167f8c5be1e5ebec7d5bd14f71427d1e84f3dd0314c0f7b2291e5b200ac8c7c3b925846040518082815260200191505060405180910390a35b505050565b60006001905090565b60008054905090565b80600073ffffffffffffffffffffffffffffffffffffffff166001600083815260200190815260200160002060009054906101000a900473ffffffffffffffffffffffffffffffffffffffff1673ffffffffffffffffffffffffffffffffffffffff16141515156108a657600080fd5b3373ffffffffffffffffffffffffffffffffffffffff166002600084815260200190815260200160002060009054906101000a900473ffffffffffffffffffffffffffffffffffffffff1673ffffffffffffffffffffffffffffffffffffffff1614151561091357600080fd5b8373ffffffffffffffffffffffffffffffffffffffff166001600084815260200190815260200160002060009054906101000a900473ffffffffffffffffffffffffffffffffffffffff1673ffffffffffffffffffffffffffffffffffffffff1614151561098057600080fd5b61098b848484610d0a565b50505050565b6000600460008473ffffffffffffffffffffffffffffffffffffffff1673ffffffffffffffffffffffffffffffffffffffff168152602001908152602001600020828154811015156109df57fe5b906000526020600020900154905092915050565b60006001600083815260200190815260200160002060009054906101000a900473ffffffffffffffffffffffffffffffffffffffff169050919050565b60056020528060005260406000206000915090505481565b60016020528060005260406000206000915054906101000a900473ffffffffffffffffffffffffffffffffffffffff1681565b6000600460008373ffffffffffffffffffffffffffffffffffffffff1673ffffffffffffffffffffffffffffffffffffffff168152602001908152602001600020805490509050919050565b600460205281600052604060002081815481101515610ae257fe5b9060005260206000209001600091509150505481565b80600073ffffffffffffffffffffffffffffffffffffffff166001600083815260200190815260200160002060009054906101000a900473ffffffffffffffffffffffffffffffffffffffff1673ffffffffffffffffffffffffffffffffffffffff1614151515610b6857600080fd5b3373ffffffffffffffffffffffffffffffffffffffff166001600084815260200190815260200160002060009054906101000a900473ffffffffffffffffffffffffffffffffffffffff1673ffffffffffffffffffffffffffffffffffffffff16141515610bd557600080fd5b600073ffffffffffffffffffffffffffffffffffffffff168373ffffffffffffffffffffffffffffffffffffffff1614151515610c1157600080fd5b610c1c338484610d0a565b505050565b60005481565b60026020528060005260406000206000915054906101000a900473ffffffffffffffffffffffffffffffffffffffff1681565b60036020528060005260406000206000915090508054600181600116156101000203166002900480601f016020809104026020016040519081016040528092919081815260200182805460018160011615610100020316600290048015610d025780601f10610cd757610100808354040283529160200191610d02565b820191906000526020600020905b815481529060010190602001808311610ce557829003601f168201915b505050505081565b610d1381610d91565b610d1d8382610e6a565b610d278282611053565b8173ffffffffffffffffffffffffffffffffffffffff163373ffffffffffffffffffffffffffffffffffffffff167fddf252ad1be2c89b69c2b068fc378daa952ba7f163c4a11628f55a4df523b3ef836040518082815260200191505060405180910390a3505050565b60006002600083815260200190815260200160002060006101000a81548173ffffffffffffffffffffffffffffffffffffffff021916908373ffffffffffffffffffffffffffffffffffffffff16021790555060006001600083815260200190815260200160002060009054906101000a900473ffffffffffffffffffffffffffffffffffffffff1673ffffffffffffffffffffffffffffffffffffffff167f8c5be1e5ebec7d5bd14f71427d1e84f3dd0314c0f7b2291e5b200ac8c7c3b925836040518082815260200191505060405180910390a350565b6000806000600460008673ffffffffffffffffffffffffffffffffffffffff1673ffffffffffffffffffffffffffffffffffffffff16815260200190815260200160002080549050925060056000858152602001908152602001600020549150600460008673ffffffffffffffffffffffffffffffffffffffff1673ffffffffffffffffffffffffffffffffffffffff16815260200190815260200160002060018403815481101515610f1957fe5b906000526020600020900154905080600460008773ffffffffffffffffffffffffffffffffffffffff1673ffffffffffffffffffffffffffffffffffffffff16815260200190815260200160002083815481101515610f7457fe5b906000526020600020900181905550816005600083815260200190815260200160002081905550600460008673ffffffffffffffffffffffffffffffffffffffff1673ffffffffffffffffffffffffffffffffffffffff16815260200190815260200160002060018403815481101515610fea57fe5b906000526020600020900160009055600460008673ffffffffffffffffffffffffffffffffffffffff1673ffffffffffffffffffffffffffffffffffffffff16815260200190815260200160002080548091906001900361104b919061116c565b505050505050565b600460008373ffffffffffffffffffffffffffffffffffffffff1673ffffffffffffffffffffffffffffffffffffffff16815260200190815260200160002080548060010182816110a49190611198565b916000526020600020900160008390919091505550816001600083815260200190815260200160002060006101000a81548173ffffffffffffffffffffffffffffffffffffffff021916908373ffffffffffffffffffffffffffffffffffffffff1602179055506001600460008473ffffffffffffffffffffffffffffffffffffffff1673ffffffffffffffffffffffffffffffffffffffff168152602001908152602001600020805490500360056000838152602001908152602001600020819055505050565b8154818355818115116111935781836000526020600020918201910161119291906111c4565b5b505050565b8154818355818115116111bf578183600052602060002091820191016111be91906111c4565b5b505050565b6111e691905b808211156111e25760008160009055506001016111ca565b5090565b905600a165627a7a723058201ddb508f2472028c13226bd4e190b531d27e5f0b3d28bc549fb6427b369a4aa70029",
  "source": "pragma solidity 0.4.18;\n\nimport \"./ERC721.sol\";\nimport \"node_modules/zeppelin-solidity/contracts/math/SafeMath.sol\";\n\n\n/**\n * @title NonFungibleToken\n *\n * Generic implementation for both required and optional functionality in\n * the ERC721 standard for non-fungible tokens.\n *\n * Heavily inspired by Decentraland's generic implementation:\n * https://github.com/decentraland/land/blob/master/contracts/BasicNFT.sol\n *\n * Standard Author: dete\n * Implementation Author: Nadav Hollander <nadav at dharma.io>\n */\ncontract NonFungibleToken is ERC721 {\n    using SafeMath for uint;\n\n    uint public numTokensTotal;\n\n    mapping(uint => address) public tokenIdToOwner;\n    mapping(uint => address) public tokenIdToApprovedAddress;\n    mapping(uint => string) public tokenIdToMetadata;\n    mapping(address => uint[]) public ownerToTokensOwned;\n    mapping(uint => uint) public tokenIdToOwnerArrayIndex;\n\n    event Transfer(\n        address indexed _from,\n        address indexed _to,\n        uint256 _tokenId\n    );\n\n    event Approval(\n        address indexed _owner,\n        address indexed _approved,\n        uint256 _tokenId\n    );\n\n    modifier onlyExtantToken(uint _tokenId) {\n        require(tokenIdToOwner[_tokenId] != address(0));\n        _;\n    }\n\n    function totalSupply()\n        public\n        constant\n        returns (uint256 _totalSupply)\n    {\n        return numTokensTotal;\n    }\n\n    function balanceOf(address _owner)\n        public\n        constant\n        returns (uint _balance)\n    {\n        return ownerToTokensOwned[_owner].length;\n    }\n\n    function ownerOf(uint _tokenId)\n        public\n        constant\n        returns (address _owner)\n    {\n        return tokenIdToOwner[_tokenId];\n    }\n\n    function approve(address _to, uint _tokenId)\n        public\n        onlyExtantToken(_tokenId)\n    {\n        require(msg.sender == ownerOf(_tokenId));\n        require(msg.sender != _to);\n\n        if (tokenIdToApprovedAddress[_tokenId] != address(0) ||\n                _to != address(0)) {\n            tokenIdToApprovedAddress[_tokenId] = _to;\n            Approval(msg.sender, _to, _tokenId);\n        }\n    }\n\n    function transferFrom(address _from, address _to, uint _tokenId)\n        public\n        onlyExtantToken(_tokenId)\n    {\n        require(tokenIdToApprovedAddress[_tokenId] == msg.sender);\n        require(tokenIdToOwner[_tokenId] == _from);\n\n        _transfer(_from, _to, _tokenId);\n    }\n\n    function transfer(address _to, uint _tokenId)\n        public\n        onlyExtantToken(_tokenId)\n    {\n        require(tokenIdToOwner[_tokenId] == msg.sender);\n        require(_to != address(0));\n\n        _transfer(msg.sender, _to, _tokenId);\n    }\n\n    function tokenOfOwnerByIndex(address _owner, uint _index)\n        public\n        constant\n        returns (uint _tokenId)\n    {\n        return ownerToTokensOwned[_owner][_index];\n    }\n\n    function implementsERC721()\n        public\n        constant\n        returns (bool _implementsERC721)\n    {\n        return true;\n    }\n\n    function getApproved(uint _tokenId)\n        public\n        constant\n        returns (address _approved)\n    {\n        return tokenIdToApprovedAddress[_tokenId];\n    }\n\n    function _transfer(address _from, address _to, uint _tokenId)\n        internal\n    {\n        _clearTokenApproval(_tokenId);\n        _removeTokenFromOwnersList(_from, _tokenId);\n        _addTokenToOwnersList(_to, _tokenId);\n        Transfer(msg.sender, _to, _tokenId);\n    }\n\n    function _clearTokenApproval(uint _tokenId)\n        internal\n    {\n        tokenIdToApprovedAddress[_tokenId] = address(0);\n        Approval(tokenIdToOwner[_tokenId], 0, _tokenId);\n    }\n\n    function _addTokenToOwnersList(address _owner, uint _tokenId)\n        internal\n    {\n        ownerToTokensOwned[_owner].push(_tokenId);\n        tokenIdToOwner[_tokenId] = _owner;\n        tokenIdToOwnerArrayIndex[_tokenId] =\n            ownerToTokensOwned[_owner].length - 1;\n    }\n\n    function _removeTokenFromOwnersList(address _owner, uint _tokenId)\n        internal\n    {\n        uint length = ownerToTokensOwned[_owner].length;\n        uint index = tokenIdToOwnerArrayIndex[_tokenId];\n        uint swapToken = ownerToTokensOwned[_owner][length - 1];\n\n        ownerToTokensOwned[_owner][index] = swapToken;\n        tokenIdToOwnerArrayIndex[swapToken] = index;\n\n        delete ownerToTokensOwned[_owner][length - 1];\n        ownerToTokensOwned[_owner].length--;\n    }\n}\n",
  "sourcePath": "/Users/nadavhollander/Documents/Dharma/Development/NFT/contracts/NonFungibleToken.sol",
  "compiler": {
    "name": "solc",
    "version": "0.4.18+commit.9cf6e910.Emscripten.clang"
  },
  "schemaVersion": "1.0.1",
  "updatedAt": "2017-12-16T03:06:55.406Z"
}