{
  "contractName": "NonFungibleToken",
  "abi": [
    {
      "constant": false,
      "inputs": [
        {
          "name": "_to",
          "type": "address"
        },
        {
          "name": "_tokenId",
          "type": "uint256"
        }
      ],
      "name": "approve",
      "outputs": [],
      "payable": false,
      "stateMutability": "nonpayable",
      "type": "function"
    },
    {
      "constant": true,
      "inputs": [],
      "name": "implementsERC721",
      "outputs": [
        {
          "name": "_implementsERC721",
          "type": "bool"
        }
      ],
      "payable": false,
      "stateMutability": "view",
      "type": "function"
    },
    {
      "constant": true,
      "inputs": [],
      "name": "totalSupply",
      "outputs": [
        {
          "name": "_totalSupply",
          "type": "uint256"
        }
      ],
      "payable": false,
      "stateMutability": "view",
      "type": "function"
    },
    {
      "constant": false,
      "inputs": [
        {
          "name": "_from",
          "type": "address"
        },
        {
          "name": "_to",
          "type": "address"
        },
        {
          "name": "_tokenId",
          "type": "uint256"
        }
      ],
      "name": "transferFrom",
      "outputs": [],
      "payable": false,
      "stateMutability": "nonpayable",
      "type": "function"
    },
    {
      "constant": true,
      "inputs": [
        {
          "name": "_tokenId",
          "type": "uint256"
        }
      ],
      "name": "ownerOf",
      "outputs": [
        {
          "name": "_owner",
          "type": "address"
        }
      ],
      "payable": false,
      "stateMutability": "view",
      "type": "function"
    },
    {
      "constant": true,
      "inputs": [
        {
          "name": "",
          "type": "uint256"
        }
      ],
      "name": "tokenIdToOwner",
      "outputs": [
        {
          "name": "",
          "type": "address"
        }
      ],
      "payable": false,
      "stateMutability": "view",
      "type": "function"
    },
    {
      "constant": true,
      "inputs": [
        {
          "name": "_owner",
          "type": "address"
        }
      ],
      "name": "balanceOf",
      "outputs": [
        {
          "name": "_balance",
          "type": "uint256"
        }
      ],
      "payable": false,
      "stateMutability": "view",
      "type": "function"
    },
    {
      "constant": true,
      "inputs": [
        {
          "name": "",
          "type": "address"
        }
      ],
      "name": "ownerToNumTokensOwned",
      "outputs": [
        {
          "name": "",
          "type": "uint256"
        }
      ],
      "payable": false,
      "stateMutability": "view",
      "type": "function"
    },
    {
      "constant": false,
      "inputs": [
        {
          "name": "_to",
          "type": "address"
        },
        {
          "name": "_tokenId",
          "type": "uint256"
        }
      ],
      "name": "transfer",
      "outputs": [],
      "payable": false,
      "stateMutability": "nonpayable",
      "type": "function"
    },
    {
      "constant": true,
      "inputs": [],
      "name": "numTokensTotal",
      "outputs": [
        {
          "name": "",
          "type": "uint256"
        }
      ],
      "payable": false,
      "stateMutability": "view",
      "type": "function"
    },
    {
      "constant": true,
      "inputs": [
        {
          "name": "",
          "type": "uint256"
        }
      ],
      "name": "tokenIdToApprovedAddress",
      "outputs": [
        {
          "name": "",
          "type": "address"
        }
      ],
      "payable": false,
      "stateMutability": "view",
      "type": "function"
    },
    {
      "constant": true,
      "inputs": [
        {
          "name": "",
          "type": "uint256"
        }
      ],
      "name": "tokenIdToMetadata",
      "outputs": [
        {
          "name": "",
          "type": "string"
        }
      ],
      "payable": false,
      "stateMutability": "view",
      "type": "function"
    },
    {
      "anonymous": false,
      "inputs": [
        {
          "indexed": true,
          "name": "_from",
          "type": "address"
        },
        {
          "indexed": true,
          "name": "_to",
          "type": "address"
        },
        {
          "indexed": false,
          "name": "_tokenId",
          "type": "uint256"
        }
      ],
      "name": "Transfer",
      "type": "event"
    },
    {
      "anonymous": false,
      "inputs": [
        {
          "indexed": true,
          "name": "_owner",
          "type": "address"
        },
        {
          "indexed": true,
          "name": "_approved",
          "type": "address"
        },
        {
          "indexed": false,
          "name": "_tokenId",
          "type": "uint256"
        }
      ],
      "name": "Approval",
      "type": "event"
    }
  ],
  "bytecode": "0x6060604052341561000f57600080fd5b610beb8061001e6000396000f3006060604052600436106100ba576000357c0100000000000000000000000000000000000000000000000000000000900463ffffffff168063095ea7b3146100bf5780631051db341461010157806318160ddd1461012e57806323b872dd146101575780636352211e146101b85780636e9e48ef1461021b57806370a082311461027e5780637b670ab2146102cb578063a9059cbb14610318578063af129dc21461035a578063bea58d5114610383578063bf64db1d146103e6575b600080fd5b34156100ca57600080fd5b6100ff600480803573ffffffffffffffffffffffffffffffffffffffff16906020019091908035906020019091905050610482565b005b341561010c57600080fd5b610114610692565b604051808215151515815260200191505060405180910390f35b341561013957600080fd5b61014161069b565b6040518082815260200191505060405180910390f35b341561016257600080fd5b6101b6600480803573ffffffffffffffffffffffffffffffffffffffff1690602001909190803573ffffffffffffffffffffffffffffffffffffffff169060200190919080359060200190919050506106a4565b005b34156101c357600080fd5b6101d96004808035906020019091905050610882565b604051808273ffffffffffffffffffffffffffffffffffffffff1673ffffffffffffffffffffffffffffffffffffffff16815260200191505060405180910390f35b341561022657600080fd5b61023c60048080359060200190919050506108bf565b604051808273ffffffffffffffffffffffffffffffffffffffff1673ffffffffffffffffffffffffffffffffffffffff16815260200191505060405180910390f35b341561028957600080fd5b6102b5600480803573ffffffffffffffffffffffffffffffffffffffff169060200190919050506108f2565b6040518082815260200191505060405180910390f35b34156102d657600080fd5b610302600480803573ffffffffffffffffffffffffffffffffffffffff1690602001909190505061093b565b6040518082815260200191505060405180910390f35b341561032357600080fd5b610358600480803573ffffffffffffffffffffffffffffffffffffffff16906020019091908035906020019091905050610953565b005b341561036557600080fd5b61036d610ad6565b6040518082815260200191505060405180910390f35b341561038e57600080fd5b6103a46004808035906020019091905050610adc565b604051808273ffffffffffffffffffffffffffffffffffffffff1673ffffffffffffffffffffffffffffffffffffffff16815260200191505060405180910390f35b34156103f157600080fd5b6104076004808035906020019091905050610b0f565b6040518080602001828103825283818151815260200191508051906020019080838360005b8381101561044757808201518184015260208101905061042c565b50505050905090810190601f1680156104745780820380516001836020036101000a031916815260200191505b509250505060405180910390f35b80600073ffffffffffffffffffffffffffffffffffffffff166001600083815260200190815260200160002060009054906101000a900473ffffffffffffffffffffffffffffffffffffffff1673ffffffffffffffffffffffffffffffffffffffff16141515156104f257600080fd5b6104fb82610882565b73ffffffffffffffffffffffffffffffffffffffff163373ffffffffffffffffffffffffffffffffffffffff1614151561053457600080fd5b600073ffffffffffffffffffffffffffffffffffffffff166003600084815260200190815260200160002060009054906101000a900473ffffffffffffffffffffffffffffffffffffffff1673ffffffffffffffffffffffffffffffffffffffff161415806105d05750600073ffffffffffffffffffffffffffffffffffffffff168373ffffffffffffffffffffffffffffffffffffffff1614155b1561068d57826003600084815260200190815260200160002060006101000a81548173ffffffffffffffffffffffffffffffffffffffff021916908373ffffffffffffffffffffffffffffffffffffffff1602179055508273ffffffffffffffffffffffffffffffffffffffff163373ffffffffffffffffffffffffffffffffffffffff167f8c5be1e5ebec7d5bd14f71427d1e84f3dd0314c0f7b2291e5b200ac8c7c3b925846040518082815260200191505060405180910390a35b505050565b60006001905090565b60008054905090565b80600073ffffffffffffffffffffffffffffffffffffffff166001600083815260200190815260200160002060009054906101000a900473ffffffffffffffffffffffffffffffffffffffff1673ffffffffffffffffffffffffffffffffffffffff161415151561071457600080fd5b3373ffffffffffffffffffffffffffffffffffffffff166003600084815260200190815260200160002060009054906101000a900473ffffffffffffffffffffffffffffffffffffffff1673ffffffffffffffffffffffffffffffffffffffff1614151561078157600080fd5b8373ffffffffffffffffffffffffffffffffffffffff166001600084815260200190815260200160002060009054906101000a900473ffffffffffffffffffffffffffffffffffffffff1673ffffffffffffffffffffffffffffffffffffffff161415156107ee57600080fd5b600073ffffffffffffffffffffffffffffffffffffffff168373ffffffffffffffffffffffffffffffffffffffff161415151561082a57600080fd5b826001600084815260200190815260200160002060006101000a81548173ffffffffffffffffffffffffffffffffffffffff021916908373ffffffffffffffffffffffffffffffffffffffff16021790555050505050565b60006001600083815260200190815260200160002060009054906101000a900473ffffffffffffffffffffffffffffffffffffffff169050919050565b60016020528060005260406000206000915054906101000a900473ffffffffffffffffffffffffffffffffffffffff1681565b6000600260008373ffffffffffffffffffffffffffffffffffffffff1673ffffffffffffffffffffffffffffffffffffffff168152602001908152602001600020549050919050565b60026020528060005260406000206000915090505481565b80600073ffffffffffffffffffffffffffffffffffffffff166001600083815260200190815260200160002060009054906101000a900473ffffffffffffffffffffffffffffffffffffffff1673ffffffffffffffffffffffffffffffffffffffff16141515156109c357600080fd5b3373ffffffffffffffffffffffffffffffffffffffff166001600084815260200190815260200160002060009054906101000a900473ffffffffffffffffffffffffffffffffffffffff1673ffffffffffffffffffffffffffffffffffffffff16141515610a3057600080fd5b600073ffffffffffffffffffffffffffffffffffffffff168373ffffffffffffffffffffffffffffffffffffffff1614151515610a6c57600080fd5b8273ffffffffffffffffffffffffffffffffffffffff163373ffffffffffffffffffffffffffffffffffffffff167fddf252ad1be2c89b69c2b068fc378daa952ba7f163c4a11628f55a4df523b3ef846040518082815260200191505060405180910390a3505050565b60005481565b60036020528060005260406000206000915054906101000a900473ffffffffffffffffffffffffffffffffffffffff1681565b60046020528060005260406000206000915090508054600181600116156101000203166002900480601f016020809104026020016040519081016040528092919081815260200182805460018160011615610100020316600290048015610bb75780601f10610b8c57610100808354040283529160200191610bb7565b820191906000526020600020905b815481529060010190602001808311610b9a57829003601f168201915b5050505050815600a165627a7a723058202bce98b13e6fe8ecf6cc411c03f080e68d8544a36cba613b2a72055f3e0e2bd40029",
  "source": "pragma solidity 0.4.18;\n\nimport \"./ERC721.sol\";\n\n\n/**\n * @title NonFungibleToken\n *\n * Generic implementation for both required and optional functionality in\n * the ERC721 standard for non-fungible tokens.\n *\n * Heavily inspired by Decentraland's generic implementation:\n * https://github.com/decentraland/land/blob/master/contracts/BasicNFT.sol\n *\n * Standard Author: dete\n * Implementation Author: Nadav Hollander <nadav at dharma.io>\n */\ncontract NonFungibleToken is ERC721 {\n    uint public numTokensTotal;\n\n    mapping(uint => address) public tokenIdToOwner;\n    mapping(address => uint) public ownerToNumTokensOwned;\n    mapping(uint => address) public tokenIdToApprovedAddress;\n    mapping(uint => string) public tokenIdToMetadata;\n\n    event Transfer(\n        address indexed _from,\n        address indexed _to,\n        uint256 _tokenId\n    );\n\n    event Approval(\n        address indexed _owner,\n        address indexed _approved,\n        uint256 _tokenId\n    );\n\n    modifier onlyExtantToken(uint _tokenId) {\n        require(tokenIdToOwner[_tokenId] != address(0));\n        _;\n    }\n\n    function totalSupply()\n        public\n        constant\n        returns (uint256 _totalSupply)\n    {\n        return numTokensTotal;\n    }\n\n    function balanceOf(address _owner)\n        public\n        constant\n        returns (uint _balance)\n    {\n        return ownerToNumTokensOwned[_owner];\n    }\n\n    function ownerOf(uint _tokenId)\n        public\n        constant\n        returns (address _owner)\n    {\n        return tokenIdToOwner[_tokenId];\n    }\n\n    function approve(address _to, uint _tokenId)\n        public\n        onlyExtantToken(_tokenId)\n    {\n        require(msg.sender == ownerOf(_tokenId));\n\n        if (tokenIdToApprovedAddress[_tokenId] != address(0) ||\n                _to != address(0)) {\n            tokenIdToApprovedAddress[_tokenId] = _to;\n            Approval(msg.sender, _to, _tokenId);\n        }\n    }\n\n    function transferFrom(address _from, address _to, uint _tokenId)\n        public\n        onlyExtantToken(_tokenId)\n    {\n        require(tokenIdToApprovedAddress[_tokenId] == msg.sender);\n        require(tokenIdToOwner[_tokenId] == _from);\n        require(_to != address(0));\n\n        tokenIdToOwner[_tokenId] = _to;\n    }\n\n    function transfer(address _to, uint _tokenId)\n        public\n        onlyExtantToken(_tokenId)\n    {\n        require(tokenIdToOwner[_tokenId] == msg.sender);\n        require(_to != address(0));\n\n\n\n        Transfer(msg.sender, _to, _tokenId);\n    }\n\n    function implementsERC721()\n        public\n        constant\n        returns(bool _implementsERC721)\n    {\n        return true;\n    }\n}\n",
  "sourcePath": "/Users/nadavhollander/Documents/Dharma/Development/NFT/contracts/NonFungibleToken.sol",
  "compiler": {
    "name": "solc",
    "version": "0.4.18+commit.9cf6e910.Emscripten.clang"
  },
  "schemaVersion": "1.0.1",
  "updatedAt": "2017-12-15T01:39:21.095Z"
}